{
  "contractName": "KIgra",
  "abi": [
    {
      "inputs": [
        {
          "internalType": "uint256",
          "name": "initialSupply",
          "type": "uint256"
        }
      ],
      "stateMutability": "nonpayable",
      "type": "constructor"
    },
    {
      "anonymous": false,
      "inputs": [
        {
          "indexed": true,
          "internalType": "address",
          "name": "owner",
          "type": "address"
        },
        {
          "indexed": true,
          "internalType": "address",
          "name": "spender",
          "type": "address"
        },
        {
          "indexed": false,
          "internalType": "uint256",
          "name": "value",
          "type": "uint256"
        }
      ],
      "name": "Approval",
      "type": "event"
    },
    {
      "anonymous": false,
      "inputs": [
        {
          "indexed": true,
          "internalType": "address",
          "name": "from",
          "type": "address"
        },
        {
          "indexed": true,
          "internalType": "address",
          "name": "to",
          "type": "address"
        },
        {
          "indexed": false,
          "internalType": "uint256",
          "name": "value",
          "type": "uint256"
        }
      ],
      "name": "Transfer",
      "type": "event"
    },
    {
      "inputs": [
        {
          "internalType": "address",
          "name": "",
          "type": "address"
        }
      ],
      "name": "admins",
      "outputs": [
        {
          "internalType": "bool",
          "name": "",
          "type": "bool"
        }
      ],
      "stateMutability": "view",
      "type": "function"
    },
    {
      "inputs": [
        {
          "internalType": "address",
          "name": "owner",
          "type": "address"
        },
        {
          "internalType": "address",
          "name": "spender",
          "type": "address"
        }
      ],
      "name": "allowance",
      "outputs": [
        {
          "internalType": "uint256",
          "name": "",
          "type": "uint256"
        }
      ],
      "stateMutability": "view",
      "type": "function"
    },
    {
      "inputs": [
        {
          "internalType": "address",
          "name": "spender",
          "type": "address"
        },
        {
          "internalType": "uint256",
          "name": "amount",
          "type": "uint256"
        }
      ],
      "name": "approve",
      "outputs": [
        {
          "internalType": "bool",
          "name": "",
          "type": "bool"
        }
      ],
      "stateMutability": "nonpayable",
      "type": "function"
    },
    {
      "inputs": [
        {
          "internalType": "address",
          "name": "account",
          "type": "address"
        }
      ],
      "name": "balanceOf",
      "outputs": [
        {
          "internalType": "uint256",
          "name": "",
          "type": "uint256"
        }
      ],
      "stateMutability": "view",
      "type": "function"
    },
    {
      "inputs": [],
      "name": "decimals",
      "outputs": [
        {
          "internalType": "uint8",
          "name": "",
          "type": "uint8"
        }
      ],
      "stateMutability": "view",
      "type": "function"
    },
    {
      "inputs": [
        {
          "internalType": "address",
          "name": "spender",
          "type": "address"
        },
        {
          "internalType": "uint256",
          "name": "subtractedValue",
          "type": "uint256"
        }
      ],
      "name": "decreaseAllowance",
      "outputs": [
        {
          "internalType": "bool",
          "name": "",
          "type": "bool"
        }
      ],
      "stateMutability": "nonpayable",
      "type": "function"
    },
    {
      "inputs": [
        {
          "internalType": "address",
          "name": "",
          "type": "address"
        }
      ],
      "name": "hasMint",
      "outputs": [
        {
          "internalType": "bool",
          "name": "",
          "type": "bool"
        }
      ],
      "stateMutability": "view",
      "type": "function"
    },
    {
      "inputs": [
        {
          "internalType": "address",
          "name": "spender",
          "type": "address"
        },
        {
          "internalType": "uint256",
          "name": "addedValue",
          "type": "uint256"
        }
      ],
      "name": "increaseAllowance",
      "outputs": [
        {
          "internalType": "bool",
          "name": "",
          "type": "bool"
        }
      ],
      "stateMutability": "nonpayable",
      "type": "function"
    },
    {
      "inputs": [],
      "name": "name",
      "outputs": [
        {
          "internalType": "string",
          "name": "",
          "type": "string"
        }
      ],
      "stateMutability": "view",
      "type": "function"
    },
    {
      "inputs": [],
      "name": "owner",
      "outputs": [
        {
          "internalType": "address",
          "name": "",
          "type": "address"
        }
      ],
      "stateMutability": "view",
      "type": "function"
    },
    {
      "inputs": [],
      "name": "totalSupply",
      "outputs": [
        {
          "internalType": "uint256",
          "name": "",
          "type": "uint256"
        }
      ],
      "stateMutability": "view",
      "type": "function"
    },
    {
      "inputs": [
        {
          "internalType": "address",
          "name": "recipient",
          "type": "address"
        },
        {
          "internalType": "uint256",
          "name": "amount",
          "type": "uint256"
        }
      ],
      "name": "transfer",
      "outputs": [
        {
          "internalType": "bool",
          "name": "",
          "type": "bool"
        }
      ],
      "stateMutability": "nonpayable",
      "type": "function"
    },
    {
      "inputs": [
        {
          "internalType": "address",
          "name": "sender",
          "type": "address"
        },
        {
          "internalType": "address",
          "name": "recipient",
          "type": "address"
        },
        {
          "internalType": "uint256",
          "name": "amount",
          "type": "uint256"
        }
      ],
      "name": "transferFrom",
      "outputs": [
        {
          "internalType": "bool",
          "name": "",
          "type": "bool"
        }
      ],
      "stateMutability": "nonpayable",
      "type": "function"
    },
    {
      "inputs": [
        {
          "internalType": "address",
          "name": "_admin",
          "type": "address"
        }
      ],
      "name": "AddAdmin",
      "outputs": [],
      "stateMutability": "nonpayable",
      "type": "function"
    },
    {
      "inputs": [],
      "name": "symbol",
      "outputs": [
        {
          "internalType": "string",
          "name": "",
          "type": "string"
        }
      ],
      "stateMutability": "view",
      "type": "function"
    },
    {
      "inputs": [],
      "name": "getToken",
      "outputs": [
        {
          "internalType": "bool",
          "name": "",
          "type": "bool"
        }
      ],
      "stateMutability": "nonpayable",
      "type": "function"
    },
    {
      "inputs": [],
      "name": "buyToken",
      "outputs": [
        {
          "internalType": "bool",
          "name": "",
          "type": "bool"
        }
      ],
      "stateMutability": "payable",
      "type": "function"
    },
    {
      "inputs": [
        {
          "internalType": "address",
          "name": "customerAddress",
          "type": "address"
        }
      ],
      "name": "isCustomerWhiteListed",
      "outputs": [
        {
          "internalType": "bool",
          "name": "",
          "type": "bool"
        }
      ],
      "stateMutability": "nonpayable",
      "type": "function"
    },
    {
      "inputs": [
        {
          "internalType": "address",
          "name": "customerAddress",
          "type": "address"
        }
      ],
      "name": "customerTierLevel",
      "outputs": [
        {
          "internalType": "uint256",
          "name": "",
          "type": "uint256"
        }
      ],
      "stateMutability": "nonpayable",
      "type": "function"
    }
  ],
  "bytecode": "0x60806040523480156200001157600080fd5b5060405162001b5538038062001b55833981810160405260208110156200003757600080fd5b81019080805190602001909291905050506040518060400160405280600881526020017f4d6178546f6b656e0000000000000000000000000000000000000000000000008152506040518060400160405280600581526020017f5468665f410000000000000000000000000000000000000000000000000000008152508160039080519060200190620000cc929190620004da565b508060049080519060200190620000e5929190620004da565b506012600560006101000a81548160ff021916908360ff16021790555050506200011c336302faf08083036200026e60201b60201c565b62000132306302faf0806200026e60201b60201c565b6001600860003373ffffffffffffffffffffffffffffffffffffffff1673ffffffffffffffffffffffffffffffffffffffff16815260200190815260200160002060006101000a81548160ff02191690831515021790555033600a60006101000a81548173ffffffffffffffffffffffffffffffffffffffff021916908373ffffffffffffffffffffffffffffffffffffffff1602179055506040518060400160405280600881526020017f4d6178546f6b656e0000000000000000000000000000000000000000000000008152506006908051906020019062000218929190620004da565b506040518060400160405280600581526020017f5468665f410000000000000000000000000000000000000000000000000000008152506007908051906020019062000266929190620004da565b505062000589565b600073ffffffffffffffffffffffffffffffffffffffff168273ffffffffffffffffffffffffffffffffffffffff16141562000312576040517f08c379a000000000000000000000000000000000000000000000000000000000815260040180806020018281038252601f8152602001807f45524332303a206d696e7420746f20746865207a65726f20616464726573730081525060200191505060405180910390fd5b62000326600083836200044c60201b60201c565b62000342816002546200045160201b620013f81790919060201c565b600281905550620003a0816000808573ffffffffffffffffffffffffffffffffffffffff1673ffffffffffffffffffffffffffffffffffffffff168152602001908152602001600020546200045160201b620013f81790919060201c565b6000808473ffffffffffffffffffffffffffffffffffffffff1673ffffffffffffffffffffffffffffffffffffffff168152602001908152602001600020819055508173ffffffffffffffffffffffffffffffffffffffff16600073ffffffffffffffffffffffffffffffffffffffff167fddf252ad1be2c89b69c2b068fc378daa952ba7f163c4a11628f55a4df523b3ef836040518082815260200191505060405180910390a35050565b505050565b600080828401905083811015620004d0576040517f08c379a000000000000000000000000000000000000000000000000000000000815260040180806020018281038252601b8152602001807f536166654d6174683a206164646974696f6e206f766572666c6f77000000000081525060200191505060405180910390fd5b8091505092915050565b828054600181600116156101000203166002900490600052602060002090601f016020900481019282601f106200051d57805160ff19168380011785556200054e565b828001600101855582156200054e579182015b828111156200054d57825182559160200191906001019062000530565b5b5090506200055d919062000561565b5090565b6200058691905b808211156200058257600081600090555060010162000568565b5090565b90565b6115bc80620005996000396000f3fe6080604052600436106101145760003560e01c80638da5cb5b116100a0578063a9059cbb11610064578063a9059cbb1461065c578063ad6de445146106cf578063c1c25bc514610720578063d48a87f114610789578063dd62ed3e146107f257610114565b80638da5cb5b1461047b5780638dd3fda9146104d257806395d89b4114610537578063a457c2d7146105c7578063a48217191461063a57610114565b806323b872dd116100e757806323b872dd14610276578063313ce56714610309578063395093511461033a578063429b62e5146103ad57806370a082311461041657610114565b806306fdde0314610119578063095ea7b3146101a957806318160ddd1461021c57806321df0da714610247575b600080fd5b34801561012557600080fd5b5061012e610877565b6040518080602001828103825283818151815260200191508051906020019080838360005b8381101561016e578082015181840152602081019050610153565b50505050905090810190601f16801561019b5780820380516001836020036101000a031916815260200191505b509250505060405180910390f35b3480156101b557600080fd5b50610202600480360360408110156101cc57600080fd5b81019080803573ffffffffffffffffffffffffffffffffffffffff16906020019092919080359060200190929190505050610919565b604051808215151515815260200191505060405180910390f35b34801561022857600080fd5b50610231610937565b6040518082815260200191505060405180910390f35b34801561025357600080fd5b5061025c610941565b604051808215151515815260200191505060405180910390f35b34801561028257600080fd5b506102ef6004803603606081101561029957600080fd5b81019080803573ffffffffffffffffffffffffffffffffffffffff169060200190929190803573ffffffffffffffffffffffffffffffffffffffff1690602001909291908035906020019092919050505061094a565b604051808215151515815260200191505060405180910390f35b34801561031557600080fd5b5061031e610a23565b604051808260ff1660ff16815260200191505060405180910390f35b34801561034657600080fd5b506103936004803603604081101561035d57600080fd5b81019080803573ffffffffffffffffffffffffffffffffffffffff16906020019092919080359060200190929190505050610a3a565b604051808215151515815260200191505060405180910390f35b3480156103b957600080fd5b506103fc600480360360208110156103d057600080fd5b81019080803573ffffffffffffffffffffffffffffffffffffffff169060200190929190505050610aed565b604051808215151515815260200191505060405180910390f35b34801561042257600080fd5b506104656004803603602081101561043957600080fd5b81019080803573ffffffffffffffffffffffffffffffffffffffff169060200190929190505050610b0d565b6040518082815260200191505060405180910390f35b34801561048757600080fd5b50610490610b55565b604051808273ffffffffffffffffffffffffffffffffffffffff1673ffffffffffffffffffffffffffffffffffffffff16815260200191505060405180910390f35b3480156104de57600080fd5b50610521600480360360208110156104f557600080fd5b81019080803573ffffffffffffffffffffffffffffffffffffffff169060200190929190505050610b7b565b6040518082815260200191505060405180910390f35b34801561054357600080fd5b5061054c610b85565b6040518080602001828103825283818151815260200191508051906020019080838360005b8381101561058c578082015181840152602081019050610571565b50505050905090810190601f1680156105b95780820380516001836020036101000a031916815260200191505b509250505060405180910390f35b3480156105d357600080fd5b50610620600480360360408110156105ea57600080fd5b81019080803573ffffffffffffffffffffffffffffffffffffffff16906020019092919080359060200190929190505050610c27565b604051808215151515815260200191505060405180910390f35b610642610cf4565b604051808215151515815260200191505060405180910390f35b34801561066857600080fd5b506106b56004803603604081101561067f57600080fd5b81019080803573ffffffffffffffffffffffffffffffffffffffff16906020019092919080359060200190929190505050610cfd565b604051808215151515815260200191505060405180910390f35b3480156106db57600080fd5b5061071e600480360360208110156106f257600080fd5b81019080803573ffffffffffffffffffffffffffffffffffffffff169060200190929190505050610d1b565b005b34801561072c57600080fd5b5061076f6004803603602081101561074357600080fd5b81019080803573ffffffffffffffffffffffffffffffffffffffff169060200190929190505050610dcc565b604051808215151515815260200191505060405180910390f35b34801561079557600080fd5b506107d8600480360360208110156107ac57600080fd5b81019080803573ffffffffffffffffffffffffffffffffffffffff169060200190929190505050610dec565b604051808215151515815260200191505060405180910390f35b3480156107fe57600080fd5b506108616004803603604081101561081557600080fd5b81019080803573ffffffffffffffffffffffffffffffffffffffff169060200190929190803573ffffffffffffffffffffffffffffffffffffffff169060200190929190505050610df7565b6040518082815260200191505060405180910390f35b606060038054600181600116156101000203166002900480601f01602080910402602001604051908101604052809291908181526020018280546001816001161561010002031660029004801561090f5780601f106108e45761010080835404028352916020019161090f565b820191906000526020600020905b8154815290600101906020018083116108f257829003601f168201915b5050505050905090565b600061092d610926610e7e565b8484610e86565b6001905092915050565b6000600254905090565b60006001905090565b600061095784848461107d565b610a1884610963610e7e565b610a13856040518060600160405280602881526020016114f160289139600160008b73ffffffffffffffffffffffffffffffffffffffff1673ffffffffffffffffffffffffffffffffffffffff16815260200190815260200160002060006109c9610e7e565b73ffffffffffffffffffffffffffffffffffffffff1673ffffffffffffffffffffffffffffffffffffffff1681526020019081526020016000205461133e9092919063ffffffff16565b610e86565b600190509392505050565b6000600560009054906101000a900460ff16905090565b6000610ae3610a47610e7e565b84610ade8560016000610a58610e7e565b73ffffffffffffffffffffffffffffffffffffffff1673ffffffffffffffffffffffffffffffffffffffff16815260200190815260200160002060008973ffffffffffffffffffffffffffffffffffffffff1673ffffffffffffffffffffffffffffffffffffffff168152602001908152602001600020546113f890919063ffffffff16565b610e86565b6001905092915050565b60086020528060005260406000206000915054906101000a900460ff1681565b60008060008373ffffffffffffffffffffffffffffffffffffffff1673ffffffffffffffffffffffffffffffffffffffff168152602001908152602001600020549050919050565b600a60009054906101000a900473ffffffffffffffffffffffffffffffffffffffff1681565b6000809050919050565b606060078054600181600116156101000203166002900480601f016020809104026020016040519081016040528092919081815260200182805460018160011615610100020316600290048015610c1d5780601f10610bf257610100808354040283529160200191610c1d565b820191906000526020600020905b815481529060010190602001808311610c0057829003601f168201915b5050505050905090565b6000610cea610c34610e7e565b84610ce5856040518060600160405280602581526020016115626025913960016000610c5e610e7e565b73ffffffffffffffffffffffffffffffffffffffff1673ffffffffffffffffffffffffffffffffffffffff16815260200190815260200160002060008a73ffffffffffffffffffffffffffffffffffffffff1673ffffffffffffffffffffffffffffffffffffffff1681526020019081526020016000205461133e9092919063ffffffff16565b610e86565b6001905092915050565b60006001905090565b6000610d11610d0a610e7e565b848461107d565b6001905092915050565b600860003373ffffffffffffffffffffffffffffffffffffffff1673ffffffffffffffffffffffffffffffffffffffff16815260200190815260200160002060009054906101000a900460ff16610d7157600080fd5b6001600860008373ffffffffffffffffffffffffffffffffffffffff1673ffffffffffffffffffffffffffffffffffffffff16815260200190815260200160002060006101000a81548160ff02191690831515021790555050565b60096020528060005260406000206000915054906101000a900460ff1681565b600060019050919050565b6000600160008473ffffffffffffffffffffffffffffffffffffffff1673ffffffffffffffffffffffffffffffffffffffff16815260200190815260200160002060008373ffffffffffffffffffffffffffffffffffffffff1673ffffffffffffffffffffffffffffffffffffffff16815260200190815260200160002054905092915050565b600033905090565b600073ffffffffffffffffffffffffffffffffffffffff168373ffffffffffffffffffffffffffffffffffffffff161415610f0c576040517f08c379a000000000000000000000000000000000000000000000000000000000815260040180806020018281038252602481526020018061153e6024913960400191505060405180910390fd5b600073ffffffffffffffffffffffffffffffffffffffff168273ffffffffffffffffffffffffffffffffffffffff161415610f92576040517f08c379a00000000000000000000000000000000000000000000000000000000081526004018080602001828103825260228152602001806114a96022913960400191505060405180910390fd5b80600160008573ffffffffffffffffffffffffffffffffffffffff1673ffffffffffffffffffffffffffffffffffffffff16815260200190815260200160002060008473ffffffffffffffffffffffffffffffffffffffff1673ffffffffffffffffffffffffffffffffffffffff168152602001908152602001600020819055508173ffffffffffffffffffffffffffffffffffffffff168373ffffffffffffffffffffffffffffffffffffffff167f8c5be1e5ebec7d5bd14f71427d1e84f3dd0314c0f7b2291e5b200ac8c7c3b925836040518082815260200191505060405180910390a3505050565b600073ffffffffffffffffffffffffffffffffffffffff168373ffffffffffffffffffffffffffffffffffffffff161415611103576040517f08c379a00000000000000000000000000000000000000000000000000000000081526004018080602001828103825260258152602001806115196025913960400191505060405180910390fd5b600073ffffffffffffffffffffffffffffffffffffffff168273ffffffffffffffffffffffffffffffffffffffff161415611189576040517f08c379a00000000000000000000000000000000000000000000000000000000081526004018080602001828103825260238152602001806114866023913960400191505060405180910390fd5b611194838383611480565b6111ff816040518060600160405280602681526020016114cb602691396000808773ffffffffffffffffffffffffffffffffffffffff1673ffffffffffffffffffffffffffffffffffffffff1681526020019081526020016000205461133e9092919063ffffffff16565b6000808573ffffffffffffffffffffffffffffffffffffffff1673ffffffffffffffffffffffffffffffffffffffff16815260200190815260200160002081905550611292816000808573ffffffffffffffffffffffffffffffffffffffff1673ffffffffffffffffffffffffffffffffffffffff168152602001908152602001600020546113f890919063ffffffff16565b6000808473ffffffffffffffffffffffffffffffffffffffff1673ffffffffffffffffffffffffffffffffffffffff168152602001908152602001600020819055508173ffffffffffffffffffffffffffffffffffffffff168373ffffffffffffffffffffffffffffffffffffffff167fddf252ad1be2c89b69c2b068fc378daa952ba7f163c4a11628f55a4df523b3ef836040518082815260200191505060405180910390a3505050565b60008383111582906113eb576040517f08c379a00000000000000000000000000000000000000000000000000000000081526004018080602001828103825283818151815260200191508051906020019080838360005b838110156113b0578082015181840152602081019050611395565b50505050905090810190601f1680156113dd5780820380516001836020036101000a031916815260200191505b509250505060405180910390fd5b5082840390509392505050565b600080828401905083811015611476576040517f08c379a000000000000000000000000000000000000000000000000000000000815260040180806020018281038252601b8152602001807f536166654d6174683a206164646974696f6e206f766572666c6f77000000000081525060200191505060405180910390fd5b8091505092915050565b50505056fe45524332303a207472616e7366657220746f20746865207a65726f206164647265737345524332303a20617070726f766520746f20746865207a65726f206164647265737345524332303a207472616e7366657220616d6f756e7420657863656564732062616c616e636545524332303a207472616e7366657220616d6f756e74206578636565647320616c6c6f77616e636545524332303a207472616e736665722066726f6d20746865207a65726f206164647265737345524332303a20617070726f76652066726f6d20746865207a65726f206164647265737345524332303a2064656372656173656420616c6c6f77616e63652062656c6f77207a65726fa26469706673582212209991d297b54ccf35339e01df969db3641fe79edeaaa4eed0dc9542a16b7a3c0664736f6c63430006020033",
  "source": "// SPDX-License-Identifier: MIT\r\npragma solidity ^0.6.0;\r\n\r\nimport \"@openzeppelin/contracts/token/ERC20/ERC20.sol\";\r\nimport \"./IExerciceSolution.sol\";\r\n\r\ncontract KIgra is ERC20, IExerciceSolution {\r\n\r\n    string private _name;\r\n    string private _symbol;\r\n    //MAPPING\r\n    mapping(address=>bool) public admins;\r\n    mapping(address=>bool) public hasMint;\r\n    address public owner;\r\n\r\n\r\n    constructor(uint256 initialSupply) public ERC20(\"MaxToken\", \"Thf_A\") {\r\n        _mint(msg.sender, initialSupply-50000000);\r\n        _mint(address(this), 50000000);\r\n        admins[msg.sender]=true;\r\n        owner=msg.sender;\r\n        _name=\"MaxToken\";\r\n        _symbol=\"Thf_A\";\r\n        \r\n    }\r\n\r\n    modifier onlyAdmins() {\r\n        require(admins[msg.sender]);\r\n        _;\r\n    }\r\n\r\n    modifier HasMinted() {\r\n        require(!hasMint[msg.sender]);\r\n        _;\r\n    }\r\n\r\n    function AddAdmin(address _admin) public onlyAdmins {\r\n        admins[_admin]=true;\r\n    }\r\n\r\n    function symbol() public override(IExerciceSolution,ERC20) view returns (string memory){\r\n        return _symbol;\r\n    }\r\n        \r\n    function getToken() external override returns (bool){\r\n        return true;\r\n    }\r\n\r\n    function buyToken() external payable override returns (bool){\r\n        return true;\r\n    }\r\n\r\n    function isCustomerWhiteListed(address customerAddress) external override returns (bool){\r\n        return true;\r\n    }\r\n\r\n    function customerTierLevel(address customerAddress) external override returns (uint256){\r\n        return 0;\r\n    }\r\n\r\n    \r\n}",
  "sourcePath": "C:\\Users\\MAXD0\\Desktop\\ESILV\\A4\\blockchain programming\\TP_ERC20\\ERC20_101\\contracts\\Thf_A_ERC20.sol",
  "compiler": {
    "name": "solc",
    "version": "0.6.2+commit.bacdbe57.Emscripten.clang"
  },
  "schemaVersion": "3.4.10",
  "updatedAt": "2022-11-26T14:47:16.411Z",
  "devdoc": {
    "methods": {
      "allowance(address,address)": {
        "details": "See {IERC20-allowance}."
      },
      "approve(address,uint256)": {
        "details": "See {IERC20-approve}.     * Requirements:     * - `spender` cannot be the zero address."
      },
      "balanceOf(address)": {
        "details": "See {IERC20-balanceOf}."
      },
      "decimals()": {
        "details": "Returns the number of decimals used to get its user representation. For example, if `decimals` equals `2`, a balance of `505` tokens should be displayed to a user as `5,05` (`505 / 10 ** 2`).     * Tokens usually opt for a value of 18, imitating the relationship between Ether and Wei. This is the value {ERC20} uses, unless {_setupDecimals} is called.     * NOTE: This information is only used for _display_ purposes: it in no way affects any of the arithmetic of the contract, including {IERC20-balanceOf} and {IERC20-transfer}."
      },
      "decreaseAllowance(address,uint256)": {
        "details": "Atomically decreases the allowance granted to `spender` by the caller.     * This is an alternative to {approve} that can be used as a mitigation for problems described in {IERC20-approve}.     * Emits an {Approval} event indicating the updated allowance.     * Requirements:     * - `spender` cannot be the zero address. - `spender` must have allowance for the caller of at least `subtractedValue`."
      },
      "increaseAllowance(address,uint256)": {
        "details": "Atomically increases the allowance granted to `spender` by the caller.     * This is an alternative to {approve} that can be used as a mitigation for problems described in {IERC20-approve}.     * Emits an {Approval} event indicating the updated allowance.     * Requirements:     * - `spender` cannot be the zero address."
      },
      "name()": {
        "details": "Returns the name of the token."
      },
      "totalSupply()": {
        "details": "See {IERC20-totalSupply}."
      },
      "transfer(address,uint256)": {
        "details": "See {IERC20-transfer}.     * Requirements:     * - `recipient` cannot be the zero address. - the caller must have a balance of at least `amount`."
      },
      "transferFrom(address,address,uint256)": {
        "details": "See {IERC20-transferFrom}.     * Emits an {Approval} event indicating the updated allowance. This is not required by the EIP. See the note at the beginning of {ERC20}.     * Requirements:     * - `sender` and `recipient` cannot be the zero address. - `sender` must have a balance of at least `amount`. - the caller must have allowance for ``sender``'s tokens of at least `amount`."
      }
    }
  },
  "userdoc": {
    "methods": {}
  }
}